{
  "contractName": "Color",
  "abi": [
    {
      "inputs": [],
      "stateMutability": "nonpayable",
      "type": "constructor"
    },
    {
      "anonymous": false,
      "inputs": [
        {
          "indexed": true,
          "internalType": "address",
          "name": "owner",
          "type": "address"
        },
        {
          "indexed": true,
          "internalType": "address",
          "name": "approved",
          "type": "address"
        },
        {
          "indexed": true,
          "internalType": "uint256",
          "name": "tokenId",
          "type": "uint256"
        }
      ],
      "name": "Approval",
      "type": "event"
    },
    {
      "anonymous": false,
      "inputs": [
        {
          "indexed": true,
          "internalType": "address",
          "name": "owner",
          "type": "address"
        },
        {
          "indexed": true,
          "internalType": "address",
          "name": "operator",
          "type": "address"
        },
        {
          "indexed": false,
          "internalType": "bool",
          "name": "approved",
          "type": "bool"
        }
      ],
      "name": "ApprovalForAll",
      "type": "event"
    },
    {
      "anonymous": false,
      "inputs": [
        {
          "indexed": true,
          "internalType": "address",
          "name": "from",
          "type": "address"
        },
        {
          "indexed": true,
          "internalType": "address",
          "name": "to",
          "type": "address"
        },
        {
          "indexed": true,
          "internalType": "uint256",
          "name": "tokenId",
          "type": "uint256"
        }
      ],
      "name": "Transfer",
      "type": "event"
    },
    {
      "inputs": [
        {
          "internalType": "address",
          "name": "to",
          "type": "address"
        },
        {
          "internalType": "uint256",
          "name": "tokenId",
          "type": "uint256"
        }
      ],
      "name": "approve",
      "outputs": [],
      "stateMutability": "nonpayable",
      "type": "function"
    },
    {
      "inputs": [
        {
          "internalType": "address",
          "name": "owner",
          "type": "address"
        }
      ],
      "name": "balanceOf",
      "outputs": [
        {
          "internalType": "uint256",
          "name": "",
          "type": "uint256"
        }
      ],
      "stateMutability": "view",
      "type": "function",
      "constant": true
    },
    {
      "inputs": [
        {
          "internalType": "uint256",
          "name": "",
          "type": "uint256"
        }
      ],
      "name": "colors",
      "outputs": [
        {
          "internalType": "string",
          "name": "",
          "type": "string"
        }
      ],
      "stateMutability": "view",
      "type": "function",
      "constant": true
    },
    {
      "inputs": [
        {
          "internalType": "uint256",
          "name": "tokenId",
          "type": "uint256"
        }
      ],
      "name": "getApproved",
      "outputs": [
        {
          "internalType": "address",
          "name": "",
          "type": "address"
        }
      ],
      "stateMutability": "view",
      "type": "function",
      "constant": true
    },
    {
      "inputs": [
        {
          "internalType": "address",
          "name": "owner",
          "type": "address"
        },
        {
          "internalType": "address",
          "name": "operator",
          "type": "address"
        }
      ],
      "name": "isApprovedForAll",
      "outputs": [
        {
          "internalType": "bool",
          "name": "",
          "type": "bool"
        }
      ],
      "stateMutability": "view",
      "type": "function",
      "constant": true
    },
    {
      "inputs": [],
      "name": "name",
      "outputs": [
        {
          "internalType": "string",
          "name": "",
          "type": "string"
        }
      ],
      "stateMutability": "view",
      "type": "function",
      "constant": true
    },
    {
      "inputs": [
        {
          "internalType": "uint256",
          "name": "tokenId",
          "type": "uint256"
        }
      ],
      "name": "ownerOf",
      "outputs": [
        {
          "internalType": "address",
          "name": "",
          "type": "address"
        }
      ],
      "stateMutability": "view",
      "type": "function",
      "constant": true
    },
    {
      "inputs": [
        {
          "internalType": "address",
          "name": "from",
          "type": "address"
        },
        {
          "internalType": "address",
          "name": "to",
          "type": "address"
        },
        {
          "internalType": "uint256",
          "name": "tokenId",
          "type": "uint256"
        }
      ],
      "name": "safeTransferFrom",
      "outputs": [],
      "stateMutability": "nonpayable",
      "type": "function"
    },
    {
      "inputs": [
        {
          "internalType": "address",
          "name": "from",
          "type": "address"
        },
        {
          "internalType": "address",
          "name": "to",
          "type": "address"
        },
        {
          "internalType": "uint256",
          "name": "tokenId",
          "type": "uint256"
        },
        {
          "internalType": "bytes",
          "name": "_data",
          "type": "bytes"
        }
      ],
      "name": "safeTransferFrom",
      "outputs": [],
      "stateMutability": "nonpayable",
      "type": "function"
    },
    {
      "inputs": [
        {
          "internalType": "address",
          "name": "operator",
          "type": "address"
        },
        {
          "internalType": "bool",
          "name": "approved",
          "type": "bool"
        }
      ],
      "name": "setApprovalForAll",
      "outputs": [],
      "stateMutability": "nonpayable",
      "type": "function"
    },
    {
      "inputs": [],
      "name": "symbol",
      "outputs": [
        {
          "internalType": "string",
          "name": "",
          "type": "string"
        }
      ],
      "stateMutability": "view",
      "type": "function",
      "constant": true
    },
    {
      "inputs": [
        {
          "internalType": "uint256",
          "name": "index",
          "type": "uint256"
        }
      ],
      "name": "tokenByIndex",
      "outputs": [
        {
          "internalType": "uint256",
          "name": "",
          "type": "uint256"
        }
      ],
      "stateMutability": "view",
      "type": "function",
      "constant": true
    },
    {
      "inputs": [
        {
          "internalType": "address",
          "name": "owner",
          "type": "address"
        },
        {
          "internalType": "uint256",
          "name": "index",
          "type": "uint256"
        }
      ],
      "name": "tokenOfOwnerByIndex",
      "outputs": [
        {
          "internalType": "uint256",
          "name": "",
          "type": "uint256"
        }
      ],
      "stateMutability": "view",
      "type": "function",
      "constant": true
    },
    {
      "inputs": [
        {
          "internalType": "uint256",
          "name": "tokenId",
          "type": "uint256"
        }
      ],
      "name": "tokenURI",
      "outputs": [
        {
          "internalType": "string",
          "name": "",
          "type": "string"
        }
      ],
      "stateMutability": "view",
      "type": "function",
      "constant": true
    },
    {
      "inputs": [],
      "name": "totalSupply",
      "outputs": [
        {
          "internalType": "uint256",
          "name": "",
          "type": "uint256"
        }
      ],
      "stateMutability": "view",
      "type": "function",
      "constant": true
    },
    {
      "inputs": [
        {
          "internalType": "address",
          "name": "from",
          "type": "address"
        },
        {
          "internalType": "address",
          "name": "to",
          "type": "address"
        },
        {
          "internalType": "uint256",
          "name": "tokenId",
          "type": "uint256"
        }
      ],
      "name": "transferFrom",
      "outputs": [],
      "stateMutability": "nonpayable",
      "type": "function"
    },
    {
      "inputs": [
        {
          "internalType": "bytes4",
          "name": "interfaceId",
          "type": "bytes4"
        }
      ],
      "name": "supportsInterface",
      "outputs": [
        {
          "internalType": "bool",
          "name": "",
          "type": "bool"
        }
      ],
      "stateMutability": "view",
      "type": "function",
      "constant": true
    },
    {
      "inputs": [
        {
          "internalType": "string",
          "name": "_color",
          "type": "string"
        }
      ],
      "name": "mint",
      "outputs": [],
      "stateMutability": "nonpayable",
      "type": "function"
    },
    {
      "inputs": [],
      "name": "getColors",
      "outputs": [
        {
          "internalType": "string[]",
          "name": "",
          "type": "string[]"
        }
      ],
      "stateMutability": "view",
      "type": "function",
      "constant": true
    }
  ],
  "bytecode": "0x60806040523480156200001157600080fd5b506040518060400160405280600581526020017f436f6c6f720000000000000000000000000000000000000000000000000000008152506040518060400160405280600381526020017f434c520000000000000000000000000000000000000000000000000000000000815250816000908051906020019062000096929190620000b8565b508060019080519060200190620000af929190620000b8565b505050620001cd565b828054620000c69062000168565b90600052602060002090601f016020900481019282620000ea576000855562000136565b82601f106200010557805160ff191683800117855562000136565b8280016001018555821562000136579182015b828111156200013557825182559160200191906001019062000118565b5b50905062000145919062000149565b5090565b5b80821115620001645760008160009055506001016200014a565b5090565b600060028204905060018216806200018157607f821691505b602082108114156200019857620001976200019e565b5b50919050565b7f4e487b7100000000000000000000000000000000000000000000000000000000600052602260045260246000fd5b6133fc80620001dd6000396000f3fe608060405234801561001057600080fd5b50600436106101215760003560e01c80636352211e116100ad578063b88d4fde11610071578063b88d4fde1461032e578063bd11f69d1461034a578063c87b56dd1461037a578063d85d3d27146103aa578063e985e9c5146103c657610121565b80636352211e1461027657806370a08231146102a657806387c79d1d146102d657806395d89b41146102f4578063a22cb4651461031257610121565b806318160ddd116100f457806318160ddd146101c057806323b872dd146101de5780632f745c59146101fa57806342842e0e1461022a5780634f6ccce71461024657610121565b806301ffc9a71461012657806306fdde0314610156578063081812fc14610174578063095ea7b3146101a4575b600080fd5b610140600480360381019061013b919061229d565b6103f6565b60405161014d91906127f3565b60405180910390f35b61015e610408565b60405161016b919061280e565b60405180910390f35b61018e60048036038101906101899190612340565b61049a565b60405161019b919061276a565b60405180910390f35b6101be60048036038101906101b9919061225d565b61051f565b005b6101c8610637565b6040516101d59190612a30565b60405180910390f35b6101f860048036038101906101f39190612147565b610644565b005b610214600480360381019061020f919061225d565b6106a4565b6040516102219190612a30565b60405180910390f35b610244600480360381019061023f9190612147565b610749565b005b610260600480360381019061025b9190612340565b610769565b60405161026d9190612a30565b60405180910390f35b610290600480360381019061028b9190612340565b6107da565b60405161029d919061276a565b60405180910390f35b6102c060048036038101906102bb91906120da565b61088c565b6040516102cd9190612a30565b60405180910390f35b6102de610944565b6040516102eb91906127d1565b60405180910390f35b6102fc610a1d565b604051610309919061280e565b60405180910390f35b61032c6004803603810190610327919061221d565b610aaf565b005b6103486004803603810190610343919061219a565b610c30565b005b610364600480360381019061035f9190612340565b610c92565b604051610371919061280e565b60405180910390f35b610394600480360381019061038f9190612340565b610d3e565b6040516103a1919061280e565b60405180910390f35b6103c460048036038101906103bf91906122f7565b610de5565b005b6103e060048036038101906103db9190612107565b610eb2565b6040516103ed91906127f3565b60405180910390f35b600061040182610f46565b9050919050565b60606000805461041790612cd0565b80601f016020809104026020016040519081016040528092919081815260200182805461044390612cd0565b80156104905780601f1061046557610100808354040283529160200191610490565b820191906000526020600020905b81548152906001019060200180831161047357829003601f168201915b5050505050905090565b60006104a582610fc0565b6104e4576040517f08c379a00000000000000000000000000000000000000000000000000000000081526004016104db90612970565b60405180910390fd5b6004600083815260200190815260200160002060009054906101000a900473ffffffffffffffffffffffffffffffffffffffff169050919050565b600061052a826107da565b90508073ffffffffffffffffffffffffffffffffffffffff168373ffffffffffffffffffffffffffffffffffffffff16141561059b576040517f08c379a0000000000000000000000000000000000000000000000000000000008152600401610592906129d0565b60405180910390fd5b8073ffffffffffffffffffffffffffffffffffffffff166105ba61102c565b73ffffffffffffffffffffffffffffffffffffffff1614806105e957506105e8816105e361102c565b610eb2565b5b610628576040517f08c379a000000000000000000000000000000000000000000000000000000000815260040161061f906128f0565b60405180910390fd5b6106328383611034565b505050565b6000600880549050905090565b61065561064f61102c565b826110ed565b610694576040517f08c379a000000000000000000000000000000000000000000000000000000000815260040161068b906129f0565b60405180910390fd5b61069f8383836111cb565b505050565b60006106af8361088c565b82106106f0576040517f08c379a00000000000000000000000000000000000000000000000000000000081526004016106e790612830565b60405180910390fd5b600660008473ffffffffffffffffffffffffffffffffffffffff1673ffffffffffffffffffffffffffffffffffffffff168152602001908152602001600020600083815260200190815260200160002054905092915050565b61076483838360405180602001604052806000815250610c30565b505050565b6000610773610637565b82106107b4576040517f08c379a00000000000000000000000000000000000000000000000000000000081526004016107ab90612a10565b60405180910390fd5b600882815481106107c8576107c7612e69565b5b90600052602060002001549050919050565b6000806002600084815260200190815260200160002060009054906101000a900473ffffffffffffffffffffffffffffffffffffffff169050600073ffffffffffffffffffffffffffffffffffffffff168173ffffffffffffffffffffffffffffffffffffffff161415610883576040517f08c379a000000000000000000000000000000000000000000000000000000000815260040161087a90612930565b60405180910390fd5b80915050919050565b60008073ffffffffffffffffffffffffffffffffffffffff168273ffffffffffffffffffffffffffffffffffffffff1614156108fd576040517f08c379a00000000000000000000000000000000000000000000000000000000081526004016108f490612910565b60405180910390fd5b600360008373ffffffffffffffffffffffffffffffffffffffff1673ffffffffffffffffffffffffffffffffffffffff168152602001908152602001600020549050919050565b6060600a805480602002602001604051908101604052809291908181526020016000905b82821015610a1457838290600052602060002001805461098790612cd0565b80601f01602080910402602001604051908101604052809291908181526020018280546109b390612cd0565b8015610a005780601f106109d557610100808354040283529160200191610a00565b820191906000526020600020905b8154815290600101906020018083116109e357829003601f168201915b505050505081526020019060010190610968565b50505050905090565b606060018054610a2c90612cd0565b80601f0160208091040260200160405190810160405280929190818152602001828054610a5890612cd0565b8015610aa55780601f10610a7a57610100808354040283529160200191610aa5565b820191906000526020600020905b815481529060010190602001808311610a8857829003601f168201915b5050505050905090565b610ab761102c565b73ffffffffffffffffffffffffffffffffffffffff168273ffffffffffffffffffffffffffffffffffffffff161415610b25576040517f08c379a0000000000000000000000000000000000000000000000000000000008152600401610b1c906128b0565b60405180910390fd5b8060056000610b3261102c565b73ffffffffffffffffffffffffffffffffffffffff1673ffffffffffffffffffffffffffffffffffffffff16815260200190815260200160002060008473ffffffffffffffffffffffffffffffffffffffff1673ffffffffffffffffffffffffffffffffffffffff16815260200190815260200160002060006101000a81548160ff0219169083151502179055508173ffffffffffffffffffffffffffffffffffffffff16610bdf61102c565b73ffffffffffffffffffffffffffffffffffffffff167f17307eab39ab6107e8899845ad3d59bd9653f200f220920489ca2b5937696c3183604051610c2491906127f3565b60405180910390a35050565b610c41610c3b61102c565b836110ed565b610c80576040517f08c379a0000000000000000000000000000000000000000000000000000000008152600401610c77906129f0565b60405180910390fd5b610c8c84848484611427565b50505050565b600a8181548110610ca257600080fd5b906000526020600020016000915090508054610cbd90612cd0565b80601f0160208091040260200160405190810160405280929190818152602001828054610ce990612cd0565b8015610d365780601f10610d0b57610100808354040283529160200191610d36565b820191906000526020600020905b815481529060010190602001808311610d1957829003601f168201915b505050505081565b6060610d4982610fc0565b610d88576040517f08c379a0000000000000000000000000000000000000000000000000000000008152600401610d7f906129b0565b60405180910390fd5b6000610d92611483565b90506000815111610db25760405180602001604052806000815250610ddd565b80610dbc8461149a565b604051602001610dcd929190612746565b6040516020818303038152906040525b915050919050565b600b81604051610df5919061272f565b908152602001604051809103902060009054906101000a900460ff1615610e1b57600080fd5b600a81908060018154018082558091505060019003906000526020600020016000909190919091509080519060200190610e56929190611eee565b5060006001600a80549050610e6b9190612be6565b9050610e7733826115fb565b6001600b83604051610e89919061272f565b908152602001604051809103902060006101000a81548160ff0219169083151502179055505050565b6000600560008473ffffffffffffffffffffffffffffffffffffffff1673ffffffffffffffffffffffffffffffffffffffff16815260200190815260200160002060008373ffffffffffffffffffffffffffffffffffffffff1673ffffffffffffffffffffffffffffffffffffffff16815260200190815260200160002060009054906101000a900460ff16905092915050565b60007f780e9d63000000000000000000000000000000000000000000000000000000007bffffffffffffffffffffffffffffffffffffffffffffffffffffffff1916827bffffffffffffffffffffffffffffffffffffffffffffffffffffffff19161480610fb95750610fb8826117c9565b5b9050919050565b60008073ffffffffffffffffffffffffffffffffffffffff166002600084815260200190815260200160002060009054906101000a900473ffffffffffffffffffffffffffffffffffffffff1673ffffffffffffffffffffffffffffffffffffffff1614159050919050565b600033905090565b816004600083815260200190815260200160002060006101000a81548173ffffffffffffffffffffffffffffffffffffffff021916908373ffffffffffffffffffffffffffffffffffffffff160217905550808273ffffffffffffffffffffffffffffffffffffffff166110a7836107da565b73ffffffffffffffffffffffffffffffffffffffff167f8c5be1e5ebec7d5bd14f71427d1e84f3dd0314c0f7b2291e5b200ac8c7c3b92560405160405180910390a45050565b60006110f882610fc0565b611137576040517f08c379a000000000000000000000000000000000000000000000000000000000815260040161112e906128d0565b60405180910390fd5b6000611142836107da565b90508073ffffffffffffffffffffffffffffffffffffffff168473ffffffffffffffffffffffffffffffffffffffff1614806111b157508373ffffffffffffffffffffffffffffffffffffffff166111998461049a565b73ffffffffffffffffffffffffffffffffffffffff16145b806111c257506111c18185610eb2565b5b91505092915050565b8273ffffffffffffffffffffffffffffffffffffffff166111eb826107da565b73ffffffffffffffffffffffffffffffffffffffff1614611241576040517f08c379a000000000000000000000000000000000000000000000000000000000815260040161123890612990565b60405180910390fd5b600073ffffffffffffffffffffffffffffffffffffffff168273ffffffffffffffffffffffffffffffffffffffff1614156112b1576040517f08c379a00000000000000000000000000000000000000000000000000000000081526004016112a890612890565b60405180910390fd5b6112bc8383836118ab565b6112c7600082611034565b6001600360008573ffffffffffffffffffffffffffffffffffffffff1673ffffffffffffffffffffffffffffffffffffffff16815260200190815260200160002060008282546113179190612be6565b925050819055506001600360008473ffffffffffffffffffffffffffffffffffffffff1673ffffffffffffffffffffffffffffffffffffffff168152602001908152602001600020600082825461136e9190612b5f565b92505081905550816002600083815260200190815260200160002060006101000a81548173ffffffffffffffffffffffffffffffffffffffff021916908373ffffffffffffffffffffffffffffffffffffffff160217905550808273ffffffffffffffffffffffffffffffffffffffff168473ffffffffffffffffffffffffffffffffffffffff167fddf252ad1be2c89b69c2b068fc378daa952ba7f163c4a11628f55a4df523b3ef60405160405180910390a4505050565b6114328484846111cb565b61143e848484846118bb565b61147d576040517f08c379a000000000000000000000000000000000000000000000000000000000815260040161147490612850565b60405180910390fd5b50505050565b606060405180602001604052806000815250905090565b606060008214156114e2576040518060400160405280600181526020017f300000000000000000000000000000000000000000000000000000000000000081525090506115f6565b600082905060005b600082146115145780806114fd90612d33565b915050600a8261150d9190612bb5565b91506114ea565b60008167ffffffffffffffff8111156115305761152f612e98565b5b6040519080825280601f01601f1916602001820160405280156115625781602001600182028036833780820191505090505b5090505b600085146115ef5760018261157b9190612be6565b9150600a8561158a9190612d7c565b60306115969190612b5f565b60f81b8183815181106115ac576115ab612e69565b5b60200101907effffffffffffffffffffffffffffffffffffffffffffffffffffffffffffff1916908160001a905350600a856115e89190612bb5565b9450611566565b8093505050505b919050565b600073ffffffffffffffffffffffffffffffffffffffff168273ffffffffffffffffffffffffffffffffffffffff16141561166b576040517f08c379a000000000000000000000000000000000000000000000000000000000815260040161166290612950565b60405180910390fd5b61167481610fc0565b156116b4576040517f08c379a00000000000000000000000000000000000000000000000000000000081526004016116ab90612870565b60405180910390fd5b6116c0600083836118ab565b6001600360008473ffffffffffffffffffffffffffffffffffffffff1673ffffffffffffffffffffffffffffffffffffffff16815260200190815260200160002060008282546117109190612b5f565b92505081905550816002600083815260200190815260200160002060006101000a81548173ffffffffffffffffffffffffffffffffffffffff021916908373ffffffffffffffffffffffffffffffffffffffff160217905550808273ffffffffffffffffffffffffffffffffffffffff16600073ffffffffffffffffffffffffffffffffffffffff167fddf252ad1be2c89b69c2b068fc378daa952ba7f163c4a11628f55a4df523b3ef60405160405180910390a45050565b60007f80ac58cd000000000000000000000000000000000000000000000000000000007bffffffffffffffffffffffffffffffffffffffffffffffffffffffff1916827bffffffffffffffffffffffffffffffffffffffffffffffffffffffff1916148061189457507f5b5e139f000000000000000000000000000000000000000000000000000000007bffffffffffffffffffffffffffffffffffffffffffffffffffffffff1916827bffffffffffffffffffffffffffffffffffffffffffffffffffffffff1916145b806118a457506118a382611a52565b5b9050919050565b6118b6838383611abc565b505050565b60006118dc8473ffffffffffffffffffffffffffffffffffffffff16611bd0565b15611a45578373ffffffffffffffffffffffffffffffffffffffff1663150b7a0261190561102c565b8786866040518563ffffffff1660e01b81526004016119279493929190612785565b602060405180830381600087803b15801561194157600080fd5b505af192505050801561197257506040513d601f19601f8201168201806040525081019061196f91906122ca565b60015b6119f5573d80600081146119a2576040519150601f19603f3d011682016040523d82523d6000602084013e6119a7565b606091505b506000815114156119ed576040517f08c379a00000000000000000000000000000000000000000000000000000000081526004016119e490612850565b60405180910390fd5b805181602001fd5b63150b7a0260e01b7bffffffffffffffffffffffffffffffffffffffffffffffffffffffff1916817bffffffffffffffffffffffffffffffffffffffffffffffffffffffff191614915050611a4a565b600190505b949350505050565b60007f01ffc9a7000000000000000000000000000000000000000000000000000000007bffffffffffffffffffffffffffffffffffffffffffffffffffffffff1916827bffffffffffffffffffffffffffffffffffffffffffffffffffffffff1916149050919050565b611ac7838383611be3565b600073ffffffffffffffffffffffffffffffffffffffff168373ffffffffffffffffffffffffffffffffffffffff161415611b0a57611b0581611be8565b611b49565b8173ffffffffffffffffffffffffffffffffffffffff168373ffffffffffffffffffffffffffffffffffffffff1614611b4857611b478382611c31565b5b5b600073ffffffffffffffffffffffffffffffffffffffff168273ffffffffffffffffffffffffffffffffffffffff161415611b8c57611b8781611d9e565b611bcb565b8273ffffffffffffffffffffffffffffffffffffffff168273ffffffffffffffffffffffffffffffffffffffff1614611bca57611bc98282611e6f565b5b5b505050565b600080823b905060008111915050919050565b505050565b6008805490506009600083815260200190815260200160002081905550600881908060018154018082558091505060019003906000526020600020016000909190919091505550565b60006001611c3e8461088c565b611c489190612be6565b9050600060076000848152602001908152602001600020549050818114611d2d576000600660008673ffffffffffffffffffffffffffffffffffffffff1673ffffffffffffffffffffffffffffffffffffffff168152602001908152602001600020600084815260200190815260200160002054905080600660008773ffffffffffffffffffffffffffffffffffffffff1673ffffffffffffffffffffffffffffffffffffffff168152602001908152602001600020600084815260200190815260200160002081905550816007600083815260200190815260200160002081905550505b6007600084815260200190815260200160002060009055600660008573ffffffffffffffffffffffffffffffffffffffff1673ffffffffffffffffffffffffffffffffffffffff16815260200190815260200160002060008381526020019081526020016000206000905550505050565b60006001600880549050611db29190612be6565b9050600060096000848152602001908152602001600020549050600060088381548110611de257611de1612e69565b5b906000526020600020015490508060088381548110611e0457611e03612e69565b5b906000526020600020018190555081600960008381526020019081526020016000208190555060096000858152602001908152602001600020600090556008805480611e5357611e52612e3a565b5b6001900381819060005260206000200160009055905550505050565b6000611e7a8361088c565b905081600660008573ffffffffffffffffffffffffffffffffffffffff1673ffffffffffffffffffffffffffffffffffffffff168152602001908152602001600020600083815260200190815260200160002081905550806007600084815260200190815260200160002081905550505050565b828054611efa90612cd0565b90600052602060002090601f016020900481019282611f1c5760008555611f63565b82601f10611f3557805160ff1916838001178555611f63565b82800160010185558215611f63579182015b82811115611f62578251825591602001919060010190611f47565b5b509050611f709190611f74565b5090565b5b80821115611f8d576000816000905550600101611f75565b5090565b6000611fa4611f9f84612a70565b612a4b565b905082815260208101848484011115611fc057611fbf612ecc565b5b611fcb848285612c8e565b509392505050565b6000611fe6611fe184612aa1565b612a4b565b90508281526020810184848401111561200257612001612ecc565b5b61200d848285612c8e565b509392505050565b6000813590506120248161336a565b92915050565b60008135905061203981613381565b92915050565b60008135905061204e81613398565b92915050565b60008151905061206381613398565b92915050565b600082601f83011261207e5761207d612ec7565b5b813561208e848260208601611f91565b91505092915050565b600082601f8301126120ac576120ab612ec7565b5b81356120bc848260208601611fd3565b91505092915050565b6000813590506120d4816133af565b92915050565b6000602082840312156120f0576120ef612ed6565b5b60006120fe84828501612015565b91505092915050565b6000806040838503121561211e5761211d612ed6565b5b600061212c85828601612015565b925050602061213d85828601612015565b9150509250929050565b6000806000606084860312156121605761215f612ed6565b5b600061216e86828701612015565b935050602061217f86828701612015565b9250506040612190868287016120c5565b9150509250925092565b600080600080608085870312156121b4576121b3612ed6565b5b60006121c287828801612015565b94505060206121d387828801612015565b93505060406121e4878288016120c5565b925050606085013567ffffffffffffffff81111561220557612204612ed1565b5b61221187828801612069565b91505092959194509250565b6000806040838503121561223457612233612ed6565b5b600061224285828601612015565b92505060206122538582860161202a565b9150509250929050565b6000806040838503121561227457612273612ed6565b5b600061228285828601612015565b9250506020612293858286016120c5565b9150509250929050565b6000602082840312156122b3576122b2612ed6565b5b60006122c18482850161203f565b91505092915050565b6000602082840312156122e0576122df612ed6565b5b60006122ee84828501612054565b91505092915050565b60006020828403121561230d5761230c612ed6565b5b600082013567ffffffffffffffff81111561232b5761232a612ed1565b5b61233784828501612097565b91505092915050565b60006020828403121561235657612355612ed6565b5b6000612364848285016120c5565b91505092915050565b6000612379838361244d565b905092915050565b61238a81612c1a565b82525050565b600061239b82612ae2565b6123a58185612b10565b9350836020820285016123b785612ad2565b8060005b858110156123f357848403895281516123d4858261236d565b94506123df83612b03565b925060208a019950506001810190506123bb565b50829750879550505050505092915050565b61240e81612c2c565b82525050565b600061241f82612aed565b6124298185612b21565b9350612439818560208601612c9d565b61244281612edb565b840191505092915050565b600061245882612af8565b6124628185612b32565b9350612472818560208601612c9d565b61247b81612edb565b840191505092915050565b600061249182612af8565b61249b8185612b43565b93506124ab818560208601612c9d565b6124b481612edb565b840191505092915050565b60006124ca82612af8565b6124d48185612b54565b93506124e4818560208601612c9d565b80840191505092915050565b60006124fd602b83612b43565b915061250882612eec565b604082019050919050565b6000612520603283612b43565b915061252b82612f3b565b604082019050919050565b6000612543601c83612b43565b915061254e82612f8a565b602082019050919050565b6000612566602483612b43565b915061257182612fb3565b604082019050919050565b6000612589601983612b43565b915061259482613002565b602082019050919050565b60006125ac602c83612b43565b91506125b78261302b565b604082019050919050565b60006125cf603883612b43565b91506125da8261307a565b604082019050919050565b60006125f2602a83612b43565b91506125fd826130c9565b604082019050919050565b6000612615602983612b43565b915061262082613118565b604082019050919050565b6000612638602083612b43565b915061264382613167565b602082019050919050565b600061265b602c83612b43565b915061266682613190565b604082019050919050565b600061267e602983612b43565b9150612689826131df565b604082019050919050565b60006126a1602f83612b43565b91506126ac8261322e565b604082019050919050565b60006126c4602183612b43565b91506126cf8261327d565b604082019050919050565b60006126e7603183612b43565b91506126f2826132cc565b604082019050919050565b600061270a602c83612b43565b91506127158261331b565b604082019050919050565b61272981612c84565b82525050565b600061273b82846124bf565b915081905092915050565b600061275282856124bf565b915061275e82846124bf565b91508190509392505050565b600060208201905061277f6000830184612381565b92915050565b600060808201905061279a6000830187612381565b6127a76020830186612381565b6127b46040830185612720565b81810360608301526127c68184612414565b905095945050505050565b600060208201905081810360008301526127eb8184612390565b905092915050565b60006020820190506128086000830184612405565b92915050565b600060208201905081810360008301526128288184612486565b905092915050565b60006020820190508181036000830152612849816124f0565b9050919050565b6000602082019050818103600083015261286981612513565b9050919050565b6000602082019050818103600083015261288981612536565b9050919050565b600060208201905081810360008301526128a981612559565b9050919050565b600060208201905081810360008301526128c98161257c565b9050919050565b600060208201905081810360008301526128e98161259f565b9050919050565b60006020820190508181036000830152612909816125c2565b9050919050565b60006020820190508181036000830152612929816125e5565b9050919050565b6000602082019050818103600083015261294981612608565b9050919050565b600060208201905081810360008301526129698161262b565b9050919050565b600060208201905081810360008301526129898161264e565b9050919050565b600060208201905081810360008301526129a981612671565b9050919050565b600060208201905081810360008301526129c981612694565b9050919050565b600060208201905081810360008301526129e9816126b7565b9050919050565b60006020820190508181036000830152612a09816126da565b9050919050565b60006020820190508181036000830152612a29816126fd565b9050919050565b6000602082019050612a456000830184612720565b92915050565b6000612a55612a66565b9050612a618282612d02565b919050565b6000604051905090565b600067ffffffffffffffff821115612a8b57612a8a612e98565b5b612a9482612edb565b9050602081019050919050565b600067ffffffffffffffff821115612abc57612abb612e98565b5b612ac582612edb565b9050602081019050919050565b6000819050602082019050919050565b600081519050919050565b600081519050919050565b600081519050919050565b6000602082019050919050565b600082825260208201905092915050565b600082825260208201905092915050565b600082825260208201905092915050565b600082825260208201905092915050565b600081905092915050565b6000612b6a82612c84565b9150612b7583612c84565b9250827fffffffffffffffffffffffffffffffffffffffffffffffffffffffffffffffff03821115612baa57612ba9612dad565b5b828201905092915050565b6000612bc082612c84565b9150612bcb83612c84565b925082612bdb57612bda612ddc565b5b828204905092915050565b6000612bf182612c84565b9150612bfc83612c84565b925082821015612c0f57612c0e612dad565b5b828203905092915050565b6000612c2582612c64565b9050919050565b60008115159050919050565b60007fffffffff0000000000000000000000000000000000000000000000000000000082169050919050565b600073ffffffffffffffffffffffffffffffffffffffff82169050919050565b6000819050919050565b82818337600083830152505050565b60005b83811015612cbb578082015181840152602081019050612ca0565b83811115612cca576000848401525b50505050565b60006002820490506001821680612ce857607f821691505b60208210811415612cfc57612cfb612e0b565b5b50919050565b612d0b82612edb565b810181811067ffffffffffffffff82111715612d2a57612d29612e98565b5b80604052505050565b6000612d3e82612c84565b91507fffffffffffffffffffffffffffffffffffffffffffffffffffffffffffffffff821415612d7157612d70612dad565b5b600182019050919050565b6000612d8782612c84565b9150612d9283612c84565b925082612da257612da1612ddc565b5b828206905092915050565b7f4e487b7100000000000000000000000000000000000000000000000000000000600052601160045260246000fd5b7f4e487b7100000000000000000000000000000000000000000000000000000000600052601260045260246000fd5b7f4e487b7100000000000000000000000000000000000000000000000000000000600052602260045260246000fd5b7f4e487b7100000000000000000000000000000000000000000000000000000000600052603160045260246000fd5b7f4e487b7100000000000000000000000000000000000000000000000000000000600052603260045260246000fd5b7f4e487b7100000000000000000000000000000000000000000000000000000000600052604160045260246000fd5b600080fd5b600080fd5b600080fd5b600080fd5b6000601f19601f8301169050919050565b7f455243373231456e756d657261626c653a206f776e657220696e646578206f7560008201527f74206f6620626f756e6473000000000000000000000000000000000000000000602082015250565b7f4552433732313a207472616e7366657220746f206e6f6e20455243373231526560008201527f63656976657220696d706c656d656e7465720000000000000000000000000000602082015250565b7f4552433732313a20746f6b656e20616c7265616479206d696e74656400000000600082015250565b7f4552433732313a207472616e7366657220746f20746865207a65726f2061646460008201527f7265737300000000000000000000000000000000000000000000000000000000602082015250565b7f4552433732313a20617070726f766520746f2063616c6c657200000000000000600082015250565b7f4552433732313a206f70657261746f7220717565727920666f72206e6f6e657860008201527f697374656e7420746f6b656e0000000000000000000000000000000000000000602082015250565b7f4552433732313a20617070726f76652063616c6c6572206973206e6f74206f7760008201527f6e6572206e6f7220617070726f76656420666f7220616c6c0000000000000000602082015250565b7f4552433732313a2062616c616e636520717565727920666f7220746865207a6560008201527f726f206164647265737300000000000000000000000000000000000000000000602082015250565b7f4552433732313a206f776e657220717565727920666f72206e6f6e657869737460008201527f656e7420746f6b656e0000000000000000000000000000000000000000000000602082015250565b7f4552433732313a206d696e7420746f20746865207a65726f2061646472657373600082015250565b7f4552433732313a20617070726f76656420717565727920666f72206e6f6e657860008201527f697374656e7420746f6b656e0000000000000000000000000000000000000000602082015250565b7f4552433732313a207472616e73666572206f6620746f6b656e2074686174206960008201527f73206e6f74206f776e0000000000000000000000000000000000000000000000602082015250565b7f4552433732314d657461646174613a2055524920717565727920666f72206e6f60008201527f6e6578697374656e7420746f6b656e0000000000000000000000000000000000602082015250565b7f4552433732313a20617070726f76616c20746f2063757272656e74206f776e6560008201527f7200000000000000000000000000000000000000000000000000000000000000602082015250565b7f4552433732313a207472616e736665722063616c6c6572206973206e6f74206f60008201527f776e6572206e6f7220617070726f766564000000000000000000000000000000602082015250565b7f455243373231456e756d657261626c653a20676c6f62616c20696e646578206f60008201527f7574206f6620626f756e64730000000000000000000000000000000000000000602082015250565b61337381612c1a565b811461337e57600080fd5b50565b61338a81612c2c565b811461339557600080fd5b50565b6133a181612c38565b81146133ac57600080fd5b50565b6133b881612c84565b81146133c357600080fd5b5056fea26469706673582212205ccb1689f73444377fe44aa7d20946a357bd709800f71e0417ba4c6ff029d33664736f6c63430008070033",
  "immutableReferences": {},
  "source": "// SPDX-License-Identifier: MIT\npragma solidity ^0.8.2;\n\nimport \"@openzeppelin/contracts/token/ERC721/ERC721.sol\";\nimport \"@openzeppelin/contracts/token/ERC721/extensions/ERC721Enumerable.sol\";\n\n\n\ncontract Color is ERC721, ERC721Enumerable {\n  string[] public colors;\n  mapping(string => bool) private _colorExists;\n\n  constructor() ERC721(\"Color\", \"CLR\") public {}\n  \n  function _beforeTokenTransfer(address from, address to, uint256 tokenId)\n      internal\n      override(ERC721, ERC721Enumerable)\n  {\n      super._beforeTokenTransfer(from, to, tokenId);\n  }\n\n  function supportsInterface(bytes4 interfaceId)\n      public\n      view\n      override(ERC721, ERC721Enumerable)\n      returns (bool)\n  {\n      return super.supportsInterface(interfaceId);\n  }\n\n  function mint(string memory _color) public {\n    require(!_colorExists[_color]);\n    colors.push(_color);\n    uint _id = colors.length - 1;\n    _mint(msg.sender, _id);\n    _colorExists[_color] = true;\n  }\n\n  function getColors() external view returns(string[] memory) {\n    return colors;\n  }\n}\n",
  "sourcePath": "/Users/zacherygentry/Projects/nft-tutorial/contracts/Color.sol",
  "compiler": {
    "name": "solc",
    "version": "0.8.7+commit.e28d00a7.Emscripten.clang"
  },
  "schemaVersion": "3.4.3",
  "updatedAt": "2021-08-16T05:54:31.708Z",
  "networkType": "ethereum",
  "devdoc": {
    "kind": "dev",
    "methods": {
      "approve(address,uint256)": {
        "details": "See {IERC721-approve}."
      },
      "balanceOf(address)": {
        "details": "See {IERC721-balanceOf}."
      },
      "getApproved(uint256)": {
        "details": "See {IERC721-getApproved}."
      },
      "isApprovedForAll(address,address)": {
        "details": "See {IERC721-isApprovedForAll}."
      },
      "name()": {
        "details": "See {IERC721Metadata-name}."
      },
      "ownerOf(uint256)": {
        "details": "See {IERC721-ownerOf}."
      },
      "safeTransferFrom(address,address,uint256)": {
        "details": "See {IERC721-safeTransferFrom}."
      },
      "safeTransferFrom(address,address,uint256,bytes)": {
        "details": "See {IERC721-safeTransferFrom}."
      },
      "setApprovalForAll(address,bool)": {
        "details": "See {IERC721-setApprovalForAll}."
      },
      "symbol()": {
        "details": "See {IERC721Metadata-symbol}."
      },
      "tokenByIndex(uint256)": {
        "details": "See {IERC721Enumerable-tokenByIndex}."
      },
      "tokenOfOwnerByIndex(address,uint256)": {
        "details": "See {IERC721Enumerable-tokenOfOwnerByIndex}."
      },
      "tokenURI(uint256)": {
        "details": "See {IERC721Metadata-tokenURI}."
      },
      "totalSupply()": {
        "details": "See {IERC721Enumerable-totalSupply}."
      },
      "transferFrom(address,address,uint256)": {
        "details": "See {IERC721-transferFrom}."
      }
    },
    "version": 1
  },
  "userdoc": {
    "kind": "user",
    "methods": {},
    "version": 1
  }
}